{
  "contractName": "CCToken",
  "abi": [
    {
      "constant": true,
      "inputs": [],
      "name": "totalSupply",
      "outputs": [
        {
          "name": "",
          "type": "uint256"
        }
      ],
      "payable": false,
      "stateMutability": "view",
      "type": "function"
    },
    {
      "inputs": [],
      "payable": false,
      "stateMutability": "nonpayable",
      "type": "constructor"
    }
  ],
  "bytecode": "0x608060405234801561001057600080fd5b50632cb41780600081905550609e8061002a6000396000f300608060405260043610603f576000357c0100000000000000000000000000000000000000000000000000000000900463ffffffff16806318160ddd146044575b600080fd5b348015604f57600080fd5b506056606c565b6040518082815260200191505060405180910390f35b600054815600a165627a7a72305820264b2405ed6e805743bf00d53d236a7542418b7bd524ce9709c163becc6589400029",
  "source": "pragma solidity ^0.4.2;\n\ncontract CCToken {\n    uint public totalSupply;\n    constructor () public {\n        totalSupply = 750000000;\n    }\n}",
  "sourcePath": "/Users/mehranhydary/Desktop/dev/cc-coin/contracts/CCToken.sol",
  "compiler": {
    "name": "solc",
    "version": "0.4.23+commit.124ca40d.Emscripten.clang"
  },
  "schemaVersion": "2.0.0",
  "updatedAt": "2018-06-17T02:07:19.421Z"
}